{
  "_format": "hh-sol-artifact-1",
  "contractName": "CrowdFunding",
  "sourceName": "contracts/CrowdFunding.sol",
  "abi": [
    {
      "anonymous": false,
      "inputs": [
        {
          "indexed": true,
          "internalType": "uint256",
          "name": "id",
          "type": "uint256"
        },
        {
          "indexed": true,
          "internalType": "address",
          "name": "owner",
          "type": "address"
        },
        {
          "indexed": false,
          "internalType": "string",
          "name": "title",
          "type": "string"
        },
        {
          "indexed": false,
          "internalType": "uint256",
          "name": "target",
          "type": "uint256"
        },
        {
          "indexed": false,
          "internalType": "uint256",
          "name": "deadline",
          "type": "uint256"
        }
      ],
      "name": "CampaignCreated",
      "type": "event"
    },
    {
      "anonymous": false,
      "inputs": [
        {
          "indexed": true,
          "internalType": "uint256",
          "name": "id",
          "type": "uint256"
        },
        {
          "indexed": true,
          "internalType": "address",
          "name": "donator",
          "type": "address"
        },
        {
          "indexed": false,
          "internalType": "uint256",
          "name": "amount",
          "type": "uint256"
        }
      ],
      "name": "Donated",
      "type": "event"
    },
    {
      "anonymous": false,
      "inputs": [
        {
          "indexed": true,
          "internalType": "uint256",
          "name": "id",
          "type": "uint256"
        },
        {
          "indexed": true,
          "internalType": "address",
          "name": "owner",
          "type": "address"
        },
        {
          "indexed": false,
          "internalType": "uint256",
          "name": "amount",
          "type": "uint256"
        }
      ],
      "name": "FundsClaimed",
      "type": "event"
    },
    {
      "inputs": [
        {
          "internalType": "uint256",
          "name": "",
          "type": "uint256"
        }
      ],
      "name": "campaigns",
      "outputs": [
        {
          "internalType": "address",
          "name": "owner",
          "type": "address"
        },
        {
          "internalType": "string",
          "name": "title",
          "type": "string"
        },
        {
          "internalType": "string",
          "name": "description",
          "type": "string"
        },
        {
          "internalType": "uint256",
          "name": "target",
          "type": "uint256"
        },
        {
          "internalType": "uint256",
          "name": "deadline",
          "type": "uint256"
        },
        {
          "internalType": "uint256",
          "name": "amountCollected",
          "type": "uint256"
        },
        {
          "internalType": "bool",
          "name": "claimed",
          "type": "bool"
        }
      ],
      "stateMutability": "view",
      "type": "function"
    },
    {
      "inputs": [
        {
          "internalType": "uint256",
          "name": "_id",
          "type": "uint256"
        }
      ],
      "name": "claim",
      "outputs": [],
      "stateMutability": "nonpayable",
      "type": "function"
    },
    {
      "inputs": [
        {
          "internalType": "address",
          "name": "_owner",
          "type": "address"
        },
        {
          "internalType": "string",
          "name": "_title",
          "type": "string"
        },
        {
          "internalType": "string",
          "name": "_description",
          "type": "string"
        },
        {
          "internalType": "uint256",
          "name": "_target",
          "type": "uint256"
        },
        {
          "internalType": "uint256",
          "name": "_deadline",
          "type": "uint256"
        }
      ],
      "name": "createCampaign",
      "outputs": [
        {
          "internalType": "uint256",
          "name": "",
          "type": "uint256"
        }
      ],
      "stateMutability": "nonpayable",
      "type": "function"
    },
    {
      "inputs": [
        {
          "internalType": "uint256",
          "name": "_id",
          "type": "uint256"
        }
      ],
      "name": "donateToCampaign",
      "outputs": [],
      "stateMutability": "payable",
      "type": "function"
    },
    {
      "inputs": [],
      "name": "getCampaign",
      "outputs": [
        {
          "components": [
            {
              "internalType": "address",
              "name": "owner",
              "type": "address"
            },
            {
              "internalType": "string",
              "name": "title",
              "type": "string"
            },
            {
              "internalType": "string",
              "name": "description",
              "type": "string"
            },
            {
              "internalType": "uint256",
              "name": "target",
              "type": "uint256"
            },
            {
              "internalType": "uint256",
              "name": "deadline",
              "type": "uint256"
            },
            {
              "internalType": "uint256",
              "name": "amountCollected",
              "type": "uint256"
            },
            {
              "internalType": "address[]",
              "name": "donators",
              "type": "address[]"
            },
            {
              "internalType": "uint256[]",
              "name": "donations",
              "type": "uint256[]"
            },
            {
              "internalType": "bool",
              "name": "claimed",
              "type": "bool"
            }
          ],
          "internalType": "struct CrowdFunding.Campaign[]",
          "name": "",
          "type": "tuple[]"
        }
      ],
      "stateMutability": "view",
      "type": "function"
    },
    {
      "inputs": [
        {
          "internalType": "uint256",
          "name": "_id",
          "type": "uint256"
        }
      ],
      "name": "getDonators",
      "outputs": [
        {
          "internalType": "address[]",
          "name": "",
          "type": "address[]"
        },
        {
          "internalType": "uint256[]",
          "name": "",
          "type": "uint256[]"
        }
      ],
      "stateMutability": "view",
      "type": "function"
    },
    {
      "inputs": [],
      "name": "numberOfCampaigns",
      "outputs": [
        {
          "internalType": "uint256",
          "name": "",
          "type": "uint256"
        }
      ],
      "stateMutability": "view",
      "type": "function"
    },
    {
      "inputs": [
        {
          "internalType": "uint256",
          "name": "_id",
          "type": "uint256"
        }
      ],
      "name": "refund",
      "outputs": [],
      "stateMutability": "nonpayable",
      "type": "function"
    }
  ],
  "bytecode": "0x60806040526000600155348015601457600080fd5b50611466806100246000396000f3fe60806040526004361061007b5760003560e01c8063236b8e3a1161004e578063236b8e3a1461012a578063278ecde11461014c578063379607f51461016e57806342a4fda81461018e57600080fd5b8063075843c31461008057806307ca140d146100b35780630fa91fa9146100c9578063141961bc146100f7575b600080fd5b34801561008c57600080fd5b506100a061009b366004610ef5565b6101a1565b6040519081526020015b60405180910390f35b3480156100bf57600080fd5b506100a060015481565b3480156100d557600080fd5b506100e96100e4366004610f8e565b6102e3565b6040516100aa929190610fa7565b34801561010357600080fd5b50610117610112366004610f8e565b6103b2565b6040516100aa9796959493929190611078565b34801561013657600080fd5b5061013f61050b565b6040516100aa919061114e565b34801561015857600080fd5b5061016c610167366004610f8e565b610830565b005b34801561017a57600080fd5b5061016c610189366004610f8e565b610a63565b61016c61019c366004610f8e565b610c97565b60015460009081526020819052604081204283116102125760405162461bcd60e51b815260206004820152602360248201527f54686520646561646c696e65206d75737420626520696e20746865206675747560448201526239329760e91b60648201526084015b60405180910390fd5b80546001600160a01b0319166001600160a01b0388161781556001810161023987826112db565b506002810161024886826112db565b5060038101849055600481018390556000600582015560088101805460ff191690556001546040516001600160a01b03891691907fdc26653af5b99b2da33e2ad69ee6600d9aeccc82b034501db4338309615ca238906102ad908a908990899061139a565b60405180910390a3600180549060006102c5836113d5565b9190505550600180546102d891906113ee565b979650505050505050565b6000818152602081815260409182902060068101805484518185028101850190955280855260609485949293600701929091849183018282801561035057602002820191906000526020600020905b81546001600160a01b03168152600190910190602001808311610332575b50505050509150808054806020026020016040519081016040528092919081815260200182805480156103a257602002820191906000526020600020905b81548152602001906001019080831161038e575b5050505050905091509150915091565b600060208190529081526040902080546001820180546001600160a01b0390921692916103de90611258565b80601f016020809104026020016040519081016040528092919081815260200182805461040a90611258565b80156104575780601f1061042c57610100808354040283529160200191610457565b820191906000526020600020905b81548152906001019060200180831161043a57829003601f168201915b50505050509080600201805461046c90611258565b80601f016020809104026020016040519081016040528092919081815260200182805461049890611258565b80156104e55780601f106104ba576101008083540402835291602001916104e5565b820191906000526020600020905b8154815290600101906020018083116104c857829003601f168201915b505050506003830154600484015460058501546008909501549394919390925060ff1687565b6060600060015467ffffffffffffffff81111561052a5761052a610e50565b6040519080825280602002602001820160405280156105b557816020015b6105a260405180610120016040528060006001600160a01b03168152602001606081526020016060815260200160008152602001600081526020016000815260200160608152602001606081526020016000151581525090565b8152602001906001900390816105485790505b50905060005b60015481101561082a57600081815260208181526040918290208251610120810190935280546001600160a01b031683526001810180549193928492908401919061060590611258565b80601f016020809104026020016040519081016040528092919081815260200182805461063190611258565b801561067e5780601f106106535761010080835404028352916020019161067e565b820191906000526020600020905b81548152906001019060200180831161066157829003601f168201915b5050505050815260200160028201805461069790611258565b80601f01602080910402602001604051908101604052809291908181526020018280546106c390611258565b80156107105780601f106106e557610100808354040283529160200191610710565b820191906000526020600020905b8154815290600101906020018083116106f357829003601f168201915b505050505081526020016003820154815260200160048201548152602001600582015481526020016006820180548060200260200160405190810160405280929190818152602001828054801561079057602002820191906000526020600020905b81546001600160a01b03168152600190910190602001808311610772575b50505050508152602001600782018054806020026020016040519081016040528092919081815260200182805480156107e857602002820191906000526020600020905b8154815260200190600101908083116107d4575b50505091835250506008919091015460ff161515602090910152835184908490811061081657610816611407565b6020908102919091010152506001016105bb565b50919050565b6000818152602081905260409020600481015442116108915760405162461bcd60e51b815260206004820152601960248201527f43616d706169676e206973207374696c6c206163746976652e000000000000006044820152606401610209565b80600301548160050154106108e85760405162461bcd60e51b815260206004820152601b60248201527f54617267657420776173206d65742c206e6f20726566756e64732e00000000006044820152606401610209565b6000805b600683015481101561098a57336001600160a01b031683600601828154811061091757610917611407565b6000918252602090912001546001600160a01b0316036109825782600701818154811061094657610946611407565b90600052602060002001548261095c919061141d565b9150600083600701828154811061097557610975611407565b6000918252602090912001555b6001016108ec565b50600081116109d15760405162461bcd60e51b8152602060048201526013602482015272273790333ab73239903a37903932b33ab7321760691b6044820152606401610209565b604051600090339083908381818185875af1925050503d8060008114610a13576040519150601f19603f3d011682016040523d82523d6000602084013e610a18565b606091505b5050905080610a5d5760405162461bcd60e51b81526020600482015260116024820152702330b4b632b2103a37903932b33ab7321760791b6044820152606401610209565b50505050565b600081815260208190526040902080546001600160a01b03163314610adb5760405162461bcd60e51b815260206004820152602860248201527f4f6e6c79207468652063616d706169676e206f776e65722063616e20636c61696044820152673690333ab732399760c11b6064820152608401610209565b600881015460ff1615610b305760405162461bcd60e51b815260206004820181905260248201527f46756e6473206861766520616c7265616479206265656e20636c61696d65642e6044820152606401610209565b806003015481600501541015610b885760405162461bcd60e51b815260206004820181905260248201527f46756e64696e672074617267657420686173206e6f74206265656e206d65742e6044820152606401610209565b600581015460088201805460ff1916600117905581546040516000916001600160a01b03169083908381818185875af1925050503d8060008114610be8576040519150601f19603f3d011682016040523d82523d6000602084013e610bed565b606091505b5050905080610c4e5760405162461bcd60e51b815260206004820152602760248201527f4661696c656420746f2073656e642066756e647320746f2063616d706169676e6044820152661037bbb732b91760c91b6064820152608401610209565b82546040518381526001600160a01b039091169085907fa4eb50103b0591feb0bc913f479d92af5eb7ea33e8c397b49bab52ce6af26cb59060200160405180910390a350505050565b3480610cf55760405162461bcd60e51b815260206004820152602760248201527f446f6e6174696f6e20616d6f756e74206d7573742062652067726561746572206044820152663a3430b710181760c91b6064820152608401610209565b600082815260208190526040902060048101544210610d565760405162461bcd60e51b815260206004820152601d60248201527f43616d706169676e20646561646c696e6520686173207061737365642e0000006044820152606401610209565b600881015460ff1615610dbd5760405162461bcd60e51b815260206004820152602960248201527f43616d706169676e2066756e6473206861766520616c7265616479206265656e6044820152681031b630b4b6b2b21760b91b6064820152608401610209565b600681018054600181810183556000928352602080842090920180546001600160a01b031916331790556007840180549182018155835290822001839055600582018054849290610e0f90849061141d565b9091555050604051828152339084907f1b606d34afacd55873aba0fd274841a10c63e18455f2dffebad2fc60a36b2c839060200160405180910390a3505050565b634e487b7160e01b600052604160045260246000fd5b600082601f830112610e7757600080fd5b813567ffffffffffffffff811115610e9157610e91610e50565b604051601f8201601f19908116603f0116810167ffffffffffffffff81118282101715610ec057610ec0610e50565b604052818152838201602001851015610ed857600080fd5b816020850160208301376000918101602001919091529392505050565b600080600080600060a08688031215610f0d57600080fd5b85356001600160a01b0381168114610f2457600080fd5b9450602086013567ffffffffffffffff811115610f4057600080fd5b610f4c88828901610e66565b945050604086013567ffffffffffffffff811115610f6957600080fd5b610f7588828901610e66565b9598949750949560608101359550608001359392505050565b600060208284031215610fa057600080fd5b5035919050565b6040808252835190820181905260009060208501906060840190835b81811015610fea5783516001600160a01b0316835260209384019390920191600101610fc3565b50508381036020808601919091528551808352918101925085019060005b81811015611026578251845260209384019390920191600101611008565b50919695505050505050565b6000815180845260005b818110156110585760208185018101518683018201520161103c565b506000602082860101526020601f19601f83011685010191505092915050565b6001600160a01b038816815260e06020820181905260009061109c90830189611032565b82810360408401526110ae8189611032565b9150508560608301528460808301528360a083015282151560c083015298975050505050505050565b600081518084526020840193506020830160005b828110156111125781516001600160a01b03168652602095860195909101906001016110eb565b5093949350505050565b600081518084526020840193506020830160005b82811015611112578151865260209586019590910190600101611130565b6000602082016020835280845180835260408501915060408160051b86010192506020860160005b8281101561124c57868503603f19018452815180516001600160a01b03168652602081015161012060208801526111b1610120880182611032565b9050604082015187820360408901526111ca8282611032565b915050606082015160608801526080820151608088015260a082015160a088015260c082015187820360c089015261120282826110d7565b91505060e082015187820360e089015261121c828261111c565b915050610100820151915061123661010088018315159052565b9550506020938401939190910190600101611176565b50929695505050505050565b600181811c9082168061126c57607f821691505b60208210810361082a57634e487b7160e01b600052602260045260246000fd5b601f8211156112d657806000526020600020601f840160051c810160208510156112b35750805b601f840160051c820191505b818110156112d357600081556001016112bf565b50505b505050565b815167ffffffffffffffff8111156112f5576112f5610e50565b611309816113038454611258565b8461128c565b6020601f82116001811461133d57600083156113255750848201515b600019600385901b1c1916600184901b1784556112d3565b600084815260208120601f198516915b8281101561136d578785015182556020948501946001909201910161134d565b508482101561138b5786840151600019600387901b60f8161c191681555b50505050600190811b01905550565b6060815260006113ad6060830186611032565b60208301949094525060400152919050565b634e487b7160e01b600052601160045260246000fd5b6000600182016113e7576113e76113bf565b5060010190565b81810381811115611401576114016113bf565b92915050565b634e487b7160e01b600052603260045260246000fd5b80820180821115611401576114016113bf56fea2646970667358221220018a6eb69a1e37d5261d86a6ec67203962c202f7530e0086120524db9bdc1b6664736f6c634300081c0033",
  "linkReferences": {},
  "deployedLinkReferences": {}
}